{
  "contractName": "SimpleContract",
  "abi": [
    {
      "inputs": [
        {
          "internalType": "uint256",
          "name": "initialData",
          "type": "uint256"
        }
      ],
      "stateMutability": "nonpayable",
      "type": "constructor"
    },
    {
      "anonymous": false,
      "inputs": [
        {
          "indexed": false,
          "internalType": "uint256",
          "name": "newData",
          "type": "uint256"
        }
      ],
      "name": "DataUpdated",
      "type": "event"
    },
    {
      "inputs": [],
      "name": "data",
      "outputs": [
        {
          "internalType": "uint256",
          "name": "",
          "type": "uint256"
        }
      ],
      "stateMutability": "view",
      "type": "function"
    },
    {
      "inputs": [
        {
          "internalType": "uint256",
          "name": "newData",
          "type": "uint256"
        }
      ],
      "name": "setData",
      "outputs": [],
      "stateMutability": "nonpayable",
      "type": "function"
    }
  ],
  "bytecode": "0x6080604052348015600e575f80fd5b506040516102153803806102158339818101604052810190602e9190606b565b805f81905550506091565b5f80fd5b5f819050919050565b604d81603d565b81146056575f80fd5b50565b5f815190506065816046565b92915050565b5f60208284031215607d57607c6039565b5b5f6088848285016059565b91505092915050565b6101778061009e5f395ff3fe608060405234801561000f575f80fd5b5060043610610034575f3560e01c80635b4b73a91461003857806373d4a13a14610054575b5f80fd5b610052600480360381019061004d91906100ee565b610072565b005b61005c6100b2565b6040516100699190610128565b60405180910390f35b805f819055507f7f7c53560eed5d6aab9db16abd65f6a8b3ed69d910c5e8e8842215596ffc6d78816040516100a79190610128565b60405180910390a150565b5f5481565b5f80fd5b5f819050919050565b6100cd816100bb565b81146100d7575f80fd5b50565b5f813590506100e8816100c4565b92915050565b5f60208284031215610103576101026100b7565b5b5f610110848285016100da565b91505092915050565b610122816100bb565b82525050565b5f60208201905061013b5f830184610119565b9291505056fea264697066735822122073880f92fdeafc165511b5db8fdd2fb43aeddcebea1a654e4dabf68d82fee4cb64736f6c63430008190033",
  "immutableReferences": {},
  "source": "// SPDX-License-Identifier: MIT\npragma solidity ^0.8.0;\n\ncontract SimpleContract {\n    uint256 public data;\n\n    event DataUpdated(uint256 newData);\n\n    constructor(uint256 initialData) {\n        data = initialData;\n    }\n\n    function setData(uint256 newData) public {\n        data = newData;\n        emit DataUpdated(newData); // Emit an event when data is updated\n    }\n}\n",
  "sourcePath": "/Users/mdabdurrazzak/XRPL_React_App/contracts/SimpleStorage.sol",
  "compiler": {
    "name": "solc",
    "version": "0.8.25+commit.b61c2a91.Emscripten.clang"
  },
  "schemaVersion": "3.4.16",
  "updatedAt": "2024-04-07T19:23:00.320Z",
  "devdoc": {
    "kind": "dev",
    "methods": {},
    "version": 1
  },
  "userdoc": {
    "kind": "user",
    "methods": {},
    "version": 1
  }
}